:100000000C941C030C9444030C9444030C9444037C
:100010000C9444030C9444030C9444030C94440344
:100020000C9444030C9444030C944E060C94C006A8
:100030000C9444030C9444030C9444030C94440324
:100040000C9444030C9444030C9444030C94440314
:100050000C9444030C9444030C9444030C94D00972
:100060000C9444030C9444030C9444030C944403F4
:100070000C9444030C9444030C9444030C944403E4
:100080000C9444030C9444030C9444030C944403D4
:100090000C9444030C9444030C9444030C944403C4
:1000A0000C9444030C9444030C944403010204088C
:1000B0001020408000000000003E5B4F5B3E3E6B26
:1000C0004F6B3E1C3E7C3E1C183C7E3C181C577DF2
:1000D000571C1C5E7F5E1C00183C1800FFE7C3E73E
:1000E000FF0018241800FFE7DBE7FF30483A060E50
:1000F0002629792926407F050507407F05253F5A97
:100100003CE73C5A7F3E1C1C08081C1C3E7F142206
:100110007F22145F5F005F5F06097F017F006689B1
:10012000956A606060606094A2FFA29408047E04F7
:100130000810207E201008082A1C08081C2A08081D
:100140001E101010100C1E0C1E0C30383E383006DD
:100150000E3E0E06000000000000005F00000007D9
:10016000000700147F147F14242A7F2A1223130807
:10017000646236495620500008070300001C2241E3
:10018000000041221C002A1C7F1C2A08083E080887
:100190000080703000080808080800006060002037
:1001A000100804023E5149453E00427F400072491A
:1001B0004949462141494D331814127F10274545BE
:1001C00045393C4A494931412111090736494949D4
:1001D00036464949291E0000140000004034000042
:1001E00000081422411414141414004122140802AB
:1001F000015909063E415D594E7C1211127C7F491E
:100200004949363E414141227F4141413E7F494972
:1002100049417F090909013E414151737F0808089E
:100220007F00417F41002040413F017F081422416F
:100230007F404040407F021C027F7F0408107F3EC9
:100240004141413E7F090909063E4151215E7F0936
:10025000192946264949493203017F01033F40409D
:10026000403F1F2040201F3F4038403F6314081488
:100270006303047804036159494D43007F414141C0
:100280000204081020004141417F040201020440A1
:1002900040404040000307080020545478407F2825
:1002A0004444383844444428384444287F3854541B
:1002B000541800087E090218A4A49C787F0804043E
:1002C0007800447D40002040403D007F10284400DD
:1002D00000417F40007C047804787C08040478386E
:1002E00044444438FC1824241818242418FC7C089E
:1002F000040408485454542404043F44243C40401B
:10030000207C1C2040201C3C4030403C44281028CD
:10031000444C9090907C4464544C44000836410016
:100320000000770000004136080002010204023C90
:100330002623263C1EA1A161123A4040207A38545F
:1003400054555921555579412154547841215554DA
:10035000784020545579400C1E527212395555552B
:1003600059395454545939555454580000457C4116
:100370000002457D420001457C40F0292429F0F02F
:10038000282528F07C545545002054547C547C0A80
:10039000097F4932494949323248484832324A484D
:1003A00048303A4141217A3A42402078009DA0A04D
:1003B0007D39444444393D4040403D3C24FF2424A1
:1003C000487E4943662B2FFC2F2BFF0929F620C0BE
:1003D000887E090320545479410000447D4130480F
:1003E000484A32384040227A007A0A0A727D0D1952
:1003F000317D2629292F28262929292630484D40B4
:1004000020380808080808080808382F10C8ACBAAF
:100410002F102834FA00007B000008142A1422222E
:10042000142A14089500220095AA005500AAAA557E
:10043000AA55AA000000FF00101010FF00141414A9
:10044000FF001010FF00FF1010F010F0141414FC47
:10045000001414F700FF0000FF00FF1414F404FC64
:10046000141417101F10101F101F1414141F001045
:100470001010F0000000001F101010101F101010BE
:1004800010F010000000FF101010101010101010CD
:10049000FF10000000FF140000FF00FF00001F100D
:1004A000170000FC04F414141710171414F404F4C7
:1004B0000000FF00F714141414141414F700F714B8
:1004C0001414171410101F101F141414F414101007
:1004D000F010F000001F101F0000001F14000000AB
:1004E000FC140000F010F01010FF10FF141414FFA3
:1004F000141010101F00000000F010FFFFFFFFFF9E
:10050000F0F0F0F0F0FFFFFF0000000000FFFF0F31
:100510000F0F0F0F38444438447C2A2A3E147E02C1
:10052000020606027E027E02635549416338444456
:100530003C04407E201E2006027E020299A5E7A50B
:10054000991C2A492A1C4C7201724C304A4D4D307C
:100550003048784830BC625A463D3E494949007EA1
:100560000101017E2A2A2A2A2A44445F4444405138
:100570004A444040444A51400000FF0103E080FFEC
:10058000000008086B6B083612362436060F090F78
:1005900006000018180000001010003040FF010194
:1005A000001F01011E00191D1712003C3C3C3C00BD
:1005B00000000000080B0002020201000904000014
:1005C00001020200000524001001052401010104BC
:1005D00024020605240600010705810310004009D6
:1005E000040100020A0000000705020240000007A3
:1005F0000583024000000403090412010002EF0217
:1006000001404123368000010102030141726475FB
:10061000696E6F204C4C430041726475696E6F20A7
:100620004C656F6E6172646F00D5F08D14A1C88146
:10063000CFD9F1AF2000B50D11241FBECFEFDAE006
:10064000DEBFCDBF14E0A0E0B1E0E0E3FCE102C01A
:1006500005900D92A233B107D9F729E0A2E3B4E0E7
:1006600001C01D92AD33B207E1F713E0CCE1D3E056
:1006700004C02197FE010E94EE0DCB31D107C9F7CE
:100680000E946C0A0C94160E0C94000040913408E1
:1006900050913508209132083091330842175307A2
:1006A000B4F49091E8009570E1F39091E80092FD28
:1006B00019C08093F100809134089091350801961B
:1006C0008F739927892B19F48EEF8093E80080911E
:1006D000340890913508019690933508809334083A
:1006E00081E0089580E00895DF92EF92FF920F93EA
:1006F0001F93CF93DF93D82EF92EE42E062F10E010
:10070000C8010196880F0E94460383E00E944603B9
:10071000CD2DDF2D0C0F1D1FC017D10789F0E7FE6F
:1007200003C0FE01849101C088810E944603F82E17
:1007300080E00E9446038F2121968111EDCF01C0F8
:1007400081E0DF91CF911F910F91FF90EF90DF90AB
:100750000895DF92EF92FF920F931F93CF93DF9351
:10076000D82E8A017B01E40EF51EEB01CE15DF05C4
:1007700071F0D7FE03C0FE01849101C088810E9400
:10078000460321968111F2CF8FEF9FEF01C0C80180
:10079000DF91CF911F910F91FF90EF90DF9008951F
:1007A000615030F02091F100FC0120830196F8CFD8
:1007B000289884E68093C3080895CF92DF92EF9241
:1007C000FF920F931F93CF93DF936C017A018B01FC
:1007D000C0E0D0E0CE15DF0581F0D8016D918D012C
:1007E000D601ED91FC910190F081E02DC6010995B3
:1007F000892B11F02196EECF7E01C701DF91CF91B9
:100800001F910F91FF90EF90DF90CF900895CF93BD
:10081000DF931F92CDB7DEB76983DC01ED91FC91C8
:100820000280F381E02D41E050E0BE016F5F7F4F19
:1008300009950F90DF91CF91089583E08093E900AF
:100840008091F200882319F08AE38093E8000895EC
:10085000FC018485958597FD0BC09FB7F89482E0D5
:100860008093E9008091F2009FBF90E00196089587
:100870009FB7F89482E08093E9008091F2009FBFD7
:1008800090E008952F923F924F925F926F927F92E5
:100890008F929F92AF92BF92CF92DF92EF92FF9290
:1008A0000F931F93CF93DF9300D000D01F92CDB74B
:1008B000DEB79B838A836A30A1F4DC0155962C91C4
:1008C000559751968D919C915297B8E02B9F800D32
:1008D000911D1124EA81FB81928B818B108A1786EE
:1008E000C0C06D3009F4BDC0AA81BB811F968D9137
:1008F0009C91509780389105BCF0EA81FB81258955
:10090000422F50E087859089F6E02F9F800D911D42
:100910001124AA81BB8150969C938E931F97569663
:100920002C91211189C09DC0EA81FB81C188D288A8
:10093000F0E4CF16D1040CF7AA81BB8155965C91E7
:100940009C01B5E05B9F200D311D1124121613068A
:10095000A4F6252E312C9601E8E05E9F200D311D76
:100960001124121613064CF6AA81BB815496BC9131
:10097000BC83EA81FB81F389FD8325E0629FB0019E
:100980001124DB01AC54BF4F2D01B12CF201A49016
:10099000F5E0BF1201C0A12C760168E0962EA0FE02
:1009A00002C08D8001C08C80811004C06C807D806D
:1009B000671489F19C012983422F481B451758F57C
:1009C000B701462F4E19451718F520383105E8F4C0
:1009D00060347105D0F48B01ECEAF0E040E1642E64
:1009E0007980609ED001A0781124A70D0770E00FD8
:1009F000F11D4491AE5CBB4F882019F0EC914E2B59
:100A000003C04095EC914E234C936F5F7F4FD9CF3D
:100A10002F5F3F4FD0CFA6949A94E20CF31C911015
:100A2000BECFB394820D931D92012F5F3F4F2901DA
:100A300036E0B312ABCF61CF6AEF64039001659FDC
:100A4000300D112420583F4F2817390754F48A815C
:100A50009B81DC01ED91FC910190F081E02D6AE039
:100A6000099581E090E00F900F900F900F900F90FC
:100A7000DF91CF911F910F91FF90EF90DF90CF907A
:100A8000BF90AF909F908F907F906F905F904F90AE
:100A90003F902F9008950895089580E090E0089584
:100AA0000F931F93CF93DF931F92CDB7DEB782E0F2
:100AB000898342E450E064EB75E080E80E94A9037A
:100AC0000E948209DC0112960D911C911397011569
:100AD000110589F0D801ED91FC910280F381E02DA0
:100AE000BE016F5F7F4FC801099597FD04C0F801F3
:100AF00000851185ECCF89810F90DF91CF911F91F7
:100B00000F9108958F929F92AF92BF92CF92DF92F2
:100B1000EF92FF920F931F93CF93DF936C017B01B2
:100B20008A0180910B01882309F45CC08091C4087C
:100B3000882309F457C08091380880FF05C0809150
:100B4000E00082608093E000E801B12C8AEFA82EDB
:100B500093E0892E2AE3922E209711F4BB20D9F13D
:100B60000E94710981110AC0AA94AA20D9F161E0FA
:100B700070E080E090E00E949609EECF282F30E0F0
:100B8000C217D3070CF48C2F9FB7F8948092E9001A
:100B90002091E80025FF1DC0282F30E0C21BD30B99
:100BA000F701815020F041914093F100FACFE20E1D
:100BB000F31EBB2019F09092E8000AC08091E80073
:100BC00085FD07C09092E800BB24B394209709F0FC
:100BD000B12C9FBFC1CF5D9884E680933708101673
:100BE000110644F081E090E0F6019383828380E077
:100BF00090E001C0C801DF91CF911F910F91FF904C
:100C0000EF90DF90CF90BF90AF909F908F9008951E
:100C10000E94710990E008950F931F93CF93DF9383
:100C20001F92CDB7DEB78C01FC018485958597FFB7
:100C30000EC0CE0101960E944309019719F48981E3
:100C400090E002C08FEF9FEFF80195878487F8014D
:100C5000848595850F90DF91CF911F910F91089515
:100C6000CF93DF931F92CDB7DEB7FC0184859585C6
:100C700097FD05C02FEF3FEF358724870BC0CE01CE
:100C800001960E944309019719F4898190E002C0FE
:100C90008FEF9FEF0F90DF91CF9108951F920F92EA
:100CA0000FB60F9211248F939F938091E100909142
:100CB000E100937F9093E10083FF0FC01092E90061
:100CC00091E09093EB001092EC0092E39093ED0092
:100CD0001092C40898E09093F00082FF20C093E047
:100CE0009093E9009091F200992319F09AE3909380
:100CF000E80090913708992339F090913708915086
:100D000090933708992389F19091C308992339F07A
:100D10009091C30891509093C308992341F184FFA7
:100D200010C08091E2008E7E81608093E20080910D
:100D3000E1008F7E8093E100809138088E7E806193
:100D400011C080FF16C08091E2008E7E806180938A
:100D5000E2008091E1008E7E8093E100809138086E
:100D60008E7E81608093380804C05D9ACDCF289A2A
:100D7000D6CF9F918F910F900FBE0F901F90189517
:100D80001F920F920FB60F921124CF92DF92EF9223
:100D9000FF920F931F932F933F934F935F936F9304
:100DA0007F938F939F93AF93BF93EF93FF93CF93D3
:100DB000DF93CDB7DEB76C97DEBFCDBF1092E900F1
:100DC0008091E80083FFFBC168E0CE0145960E9458
:100DD000D00382EF8093E8008D8987FF05C0909152
:100DE000E80090FFFCCF03C09EEF9093E800982F9F
:100DF000907609F0C6C09E894F89588D2F89F88C4E
:100E000091110CC0803829F4809139088093F10049
:100E100002C01092F1001092F10045C1913051F4DE
:100E2000811141C14130510509F03DC1809139081E
:100E30008D7F0BC0933061F4811135C14130510574
:100E400009F031C1809139088260809339082BC143
:100E5000953049F48091E80080FFFCCF822F8068B4
:100E60008093E30020C1963009F05EC00B8D1C8D8D
:100E700022E01092E9001092350810923408F21224
:100E800032C010923308109232080E94500599E047
:100E9000BE016F5F7F4FDB01E92F1D92EA95E9F7F5
:100EA0009983FA8291E09E8390EA98879AEF9987D6
:100EB0002091340830913508275F3F4F3C832B83C6
:100EC0008D831092E9001092350810923408109327
:100ED00033080093320849E050E080E00E94A90303
:100EE0000E945005E0C010933308009332080E941E
:100EF0008209DC0112960D911C91139701151105C1
:100F000009F4BBC0D801ED91FC910480F581E02D7E
:100F1000BE016B5E7F4FC8010995009709F0C7C0FD
:100F2000F80100851185EACF973009F445C1983062
:100F300021F481E08093F100B6C0993009F0B3C08C
:100F4000837009F039C1EDE0F1E081E031E096E332
:100F50002081211109C08EE78093EA001092EA00F7
:100F60008F898093C4089FC08093E9003093EB0081
:100F700021912093EC009093ED008F5F873041F733
:100F8000EACF8B8D9C8D1092E9001092350810925B
:100F900034089093330880933208898D811153C0AF
:100FA0008E899D89913A49F4813209F005C147E063
:100FB00050E064E071E080E0BBC0913209F0FCC019
:100FC000833269F48F89988DA0E0B0E080930001AE
:100FD00090930101A0930201B093030164C0803299
:100FE00069F48091E80082FFFCCF67E084E091E043
:100FF0000E94D0038BEF8093E80055C0823209F045
:1010000052C08F8980930B01EEEFFFE78591949199
:101010008B3F9C4D19F0E0E0F8E002C0EEEFFAE003
:101020008091040190910501A0910601B091070102
:10103000803B9440A105B10509F09EC080910B0151
:1010400080FF79C099C00E948209FC01028113814E
:101050000115110509F4B0C0D801ED91FC91019082
:10106000F081E02DBE016B5E7F4FC80109958111B3
:101070001AC0F80100851185EBCFF1E0FF1609F4E5
:101080004EC0F3E0FF1298C08F89882309F44AC04C
:10109000823089F440E860E188E196E00E947403C0
:1010A000882309F489C08EEF8093E80088C0181661
:1010B0001906CCF381C0813029F440E86BE08CE064
:1010C00096E0ECCF833009F077C00E948209DC0102
:1010D0001296ED90FC9013978E010F5F1F4F6801E1
:1010E000E114F10479F0D701ED91FC910680F781CC
:1010F000E02DB801C7010995080F111DF701E08423
:10110000F184EECFD8011C92F60101900020E9F79E
:101110003197BF016C197D0940E0C601BFCF6AEF6E
:1011200075E002C066EF75E0FB01449150E080E895
:101130000E94A903B8CFEE3F2AE0F20751F0808168
:1011400091818737A7E79A0721F09093FF0A809350
:10115000FE0A87E797E79183808380916000809300
:1011600036089BE088E10FB6F894A895809360005C
:101170000FBE9093600097CF80819181873797470A
:1011800009F091CFA89580916000886180936000FC
:101190008091360880936000EE3FBAE0FB0739F09B
:1011A0008091FE0A9091FF0A918380837CCF1092F8
:1011B000FF0A1092FE0A77CF81E28093EB006C96D3
:1011C0000FB6F894DEBF0FBECDBFDF91CF91FF9178
:1011D000EF91BF91AF919F918F917F916F915F91AF
:1011E0004F913F912F911F910F91FF90EF90DF90C2
:1011F000CF900F900FBE0F901F901895BC0180E00C
:1012000090E00C94960940E750E06AE478E08AE3C5
:1012100098E00E94F40D80E1EAEAF8E0DF011D9217
:101220008A95E9F7089585EC98E00E942804892BB7
:10123000D1F385EC98E00E94300608953FB7F8940A
:1012400080912D0990912E09A0912F09B09130091C
:1012500026B5A89B05C02F3F19F00196A11DB11D11
:101260003FBFBA2FA92F982F8827820F911DA11D4C
:10127000B11DBC01CD0142E0660F771F881F991F89
:101280004A95D1F708952091C408211103C08FEF2A
:101290009FEF08955FB7F89422E02093E900209132
:1012A000F20030E01216130614F421E030E0422F71
:1012B000FC0184E6415038F028988093C30890914F
:1012C000F1009193F7CF2115310521F08091F200C3
:1012D000882319F05FBFC90108958BE68093E80069
:1012E000F9CF2FB7F89483E08093E9009091E8005C
:1012F000892F807295FF04C09091F20080E4891BD1
:101300002FBF08958091350981110DC082E080932F
:10131000310984E080933209109234091092330924
:1013200081E08093350981E399E008958F929F923F
:10133000AF92BF92CF92DF92EF92FF926B017C014E
:101340000E941E094B015C01C114D104E104F104A7
:10135000F1F00E941E09DC01CB0188199909AA0944
:10136000BB09883E9340A105B10570F321E0C21A84
:10137000D108E108F10888EE880E83E0981EA11CD0
:10138000B11CC114D104E104F10419F7DDCFFF90C1
:10139000EF90DF90CF90BF90AF909F908F90089587
:1013A0001F920F920FB60F9211242F933F938F939A
:1013B0009F93AF93BF938091BF089091C008A09175
:1013C000C108B091C20830912C0923E0230F2D37BA
:1013D00020F40196A11DB11D05C026E8230F029639
:1013E000A11DB11D20932C098093BF089093C008C4
:1013F000A093C108B093C20880912D0990912E0945
:10140000A0912F09B09130090196A11DB11D8093C3
:101410002D0990932E09A0932F09B0933009BF9105
:10142000AF919F918F913F912F910F900FBE0F9091
:101430001F9018950F931F93CF93DF938C0181E03A
:1014400090E00E94E60D80FF3FC08AE090E00E949D
:10145000E60D9FEF980F9E3F08F036C022E330E084
:10146000D80150963C932E931F9728E330E0529674
:101470003C932E935197CBE0D0E0D801ED91FC91B5
:101480000190F081E02D682FC8010995CE010E94DE
:10149000E60D2196C131D10581F7E2E3F4E080E069
:1014A000A0E0B8E000800EBC8111012C1197A0FDD6
:1014B000FDCF0192B9F70DB488EE93E0DF91CF91A3
:1014C0001F910F910C94FE08DF91CF911F910F9106
:1014D000089504970C941A0A789484B5826084BDA8
:1014E00084B5816084BD85B5826085BD85B5816028
:1014F00085BD80916E00816080936E0010928100A6
:101500008091810082608093810080918100816060
:101510008093810080918000816080938000809121
:10152000910082608093910080919100816080930E
:101530009100809190008160809390008091C10023
:1015400084608093C1008091C10082608093C1005B
:101550008091C10081608093C1008091C30081604F
:101560008093C3008091C00082608093C00080910E
:10157000C20081608093C20080917A008460809371
:101580007A0080917A00826080937A0080917A005C
:10159000816080937A0080917A00806880937A00DD
:1015A0001092C40810923908109238088091D70020
:1015B00081608093D70080EA8093D80089B58061EC
:1015C00089BD89B5826089BD09B400FEFDCF61E0A7
:1015D00070E080E090E00E9496098091D8008F7CB6
:1015E00080618093D8008091E000807F8093E0004C
:1015F0008091E1008E7E8093E1008DE08093E20097
:10160000559A209A81EC80937C0085B1806F85B9D2
:1016100084B1877E84B984B1876E84B95E9A5F98FD
:101620008AB1806D8AB9769A6E9881B3806F81BBDA
:10163000899880B38D7080BB80E58CBD81E08DBDC5
:1016400085E090E00E94FE085F9A85E090E00E94AD
:10165000FE085E985C98E9E2F6E084918EBD000099
:101660000DB407FEFDCF319626E0E633F207A9F769
:101670005C9A81E88093640080916500816080932A
:10168000650082E090E00E94E60D882319F03E9A02
:101690003F9A02C03E983F98109290008AE0809353
:1016A00091008CB580628CBD8FEF9FEF9093D20834
:1016B0008093D10880E8EAE3F8E0DF011D928A9583
:1016C000E9F740E4B42E0CE514E07F015EE1A52EBD
:1016D000D7E030E8C32E2FE0D22E85EC98E00E94B0
:1016E0002804892B09F4D0C185EC98E00E943006CB
:1016F0008093BD088B3109F08DC10E94130980933E
:10170000BD08843451F48091BB088F5F8093BB087F
:1017100088301CF30E940309B7C08D3421F48091F6
:10172000BB088150A1C0853441F48091BB088F5F14
:101730008093BB081092BC08EBCF98ED980F9230C5
:1017400028F40E9413098093BD08C7CF8B3529F672
:101750000E9413098093BD08282F30E020533109DF
:101760002A303105C8F4C0EDC80F0E9413098093D8
:10177000BD08282F30E0205331092A30310568F4A4
:10178000CC0F9C2F990F990FC90FC053C80F0E94FF
:1017900013098093BD0801C0CFEF8091BD08883444
:1017A00009F490C088F4823409F463C030F48B33B8
:1017B000E9F0813409F452C090CF833409F467C052
:1017C000843409F472C089CF843609F480C038F4B7
:1017D0008A3409F4D0C08B3409F492C07ECF8D36A0
:1017E00009F4FCC0813709F476C077CF0E94130951
:1017F00090ED992E980E0E9413098093BD08282F12
:1018000030E0205331092A30310550F48053BAE0DA
:101810009B9E800D1124982E0E9413098093BD0871
:101820008091BD08863619F0883409F056CFC15032
:10183000C093BB089FEF990D9093BC08903114F0B2
:10184000D092BC088091BC0887FD1092BC08C830BB
:1018500014F0D093BB088091BB0808C08091BB08EE
:10186000CF3F09F4C1E08C1B8093BB0887FF35CFC5
:101870002BC0CF3F09F4C1E09091BB08C90FC093C2
:10188000BB08C8300CF429CFD093BB0826CFCF3F7C
:1018900009F4C1E09091BC08C90FC093BC08C031E5
:1018A0000CF41BCFD092BC0818CF8091BC08CF3F5E
:1018B00009F4C1E08C1B8093BC0887FF0ECF109207
:1018C000BC080BCF1092BC081092BB0806CFC150C9
:1018D000C093BB0802CF8FEF8C0F8E3F20F02E9A63
:1018E0002F9A2D9A08C0C13011F42E98F6CEC2302E
:1018F00011F42F98F2CEC33009F0EFCE2D98EDCE33
:10190000C13091F42091BC088091BB08E0E18E02C7
:10191000C0011124865C974F222331F0FC01E20FB5
:10192000F11D10822150F8CF8FEF8C0F8E3F98F071
:101930002091BC088091BB08F0E18F02C001112406
:10194000865C974F203108F0C8CEFC01E20FF11DF4
:1019500010822F5FF7CFC23009F0BFCEE091BB08F5
:1019600020E1E202F0011124E65CF74F80E11192E0
:101970008150E9F7B2CE8FEF8C0F8E3F88F09091B7
:10198000BB088091BC0830E1939F800D112487FD36
:10199000A4CEE82FF0E0E65CF74F10828F5FF7CF20
:1019A000C13099F48091BB084091BC08042E000C12
:1019B000550B90E18902400D511D112460E070E04B
:1019C0008AE398E00E94060E88CEC23009F085CEE8
:1019D000D701EC2D1D92EA95E9F77FCE8FEF8C0FA2
:1019E0008E3F18F01092BA080EC0C43021F48091D6
:1019F000BA08846005C0C73031F48091BA088260AB
:101A00008093BA086ACEC53009F067CE8091BA08D3
:101A10008160F6CF8A3021F09091BC0890311CF0A3
:101A20001092BC0870CE8D3009F449CF893029F46A
:101A300097300CF052CE985F24C0883029F41916E4
:101A40000CF04BCE91501DC0873049F4A092BE08D7
:101A5000B092900010939900009398003ECE80328F
:101A600008F43BCEE091BB0820E1E202F001112432
:101A7000E65CF74FE90FF11D97FDFA9580528083E0
:101A80009F5F9093BC0829CE8FB7F8944091BF0810
:101A90005091C0086091C1087091C2088FBF8091B9
:101AA0002109342F381B832F90912209992329F083
:101AB00030932309109222094DC0909120093917C3
:101AC00048F48F5F891708F045C081E083BF88958F
:101AD00013BE40C081E08093220940932109809188
:101AE0001C0990911D09019690931D0980931C0972
:101AF0008091BE08882329F081508093BE088823F6
:101B000089F1EAE3F8E02AEB38E02E173F0711F1FC
:101B1000A08158E0A502D0011124AD5EBE4F8C918A
:101B20008EBD81E090E04081DC0158E04502A00DCF
:101B3000B11D1124AD5EBE4F4C910DB407FEFDCF1B
:101B40004EBD01968830910571F70DB407FEFDCFAB
:101B50003196DBCF80E090E0892B09F4BCCD0E9468
:101B60000000B7CD10929000CCCFE5ECF8E01382E6
:101B7000128288EE93E0A0E0B0E084839583A68390
:101B8000B7838FE094E0918380838FEF9FEF9587F9
:101B90008487E5E1F9E0138212821186128680E1E2
:101BA000838710861782158681E294E09183808373
:101BB0008FE294E095838483108A1786128A118AB3
:101BC00081E0838B148A858B168A0895F999FECF5C
:101BD00092BD81BDF89A992780B50895EE0FFF1F39
:101BE0000590F491E02D09946817790768F4FB01DA
:101BF000DC01E40FF51FA40FB51F02C002900E9286
:101C000041505040D8F708950C940D0EDC0101C0EE
:101C10006D9341505040E0F70895FB01DC0102C094
:101C200001900D9241505040D8F70895F894FFCF9D
:101C3000FFFFFFFF00E100000000000000C1808105
:101C400000000000000000000000000000007A001A
:101C5000000000000060000060000000247E2424DA
:101C60007E240000003A2A7F2A2E000062640810B9
:101C700026460000042A522A040A000000000060E0
:101C8000000000000000003C4200000000423C0058
:101C90000000000000082A1C2A0800000008083E76
:101CA0000808000000000106000000000008080805
:101CB00008080000000006060000000000020408FA
:101CC000102000003C464A52623C00000022427E46
:101CD00002020000264A4A4A4A3200002442425286
:101CE000522C00000C14247E040400007452525242
:101CF000524C00003C525252520C000040404648A8
:101D0000506000002C525252522C0000304A4A4A75
:101D10004A3C000000001200000000000001260004
:101D20000000000000000814220000000014141439
:101D30001414000000002214080000002040404A53
:101D4000502000003C425A6A5A3800003E48484839
:101D5000483E00007E525252522C00003C42424209
:101D6000422400007E424242241800007E52525219
:101D7000524200007E505050504000003C42424AC7
:101D80004A2C00007E101010107E00000042427E9F
:101D9000424200000C020202027C00007E10102869
:101DA000440200007E020202020200007E201010A7
:101DB000207E00007E201008047E00003C4242424B
:101DC000423C00007E484848483000003C424A46B9
:101DD000423C00007E4848484C3200002452525297
:101DE000520C004040407E40404000007C02020215
:101DF000027C000078040202047800007C020404E3
:101E0000027C0000422418182442004020100E10CA
:101E10002040000042464A52624200000000007E1C
:101E200042420000201008040200000042427E00EE
:101E300000000000102040201000000101010101FD
:101E4000010101000000402000000000042A2A2AAD
:101E50001E000000007E1212120C0000001C222244
:101E6000220000000C1212127E0000001C2A2A2AF6
:101E70001200000000003E504000000018252525FB
:101E80003E0000007E1010100E00000000125E02E6
:101E900000000000000201015E000000007E182426
:101EA0000200000000007C02020000003E201E2014
:101EB0001E0000003E2020201E0000001C222222C6
:101EC0001C0000003F2424241800000018242424AF
:101ED0003F010000001E202020000000122A2A2AB4
:101EE0000400000000207C22020000003C020202EC
:101EF0003C000000300C020C300000003C021C02D0
:101F00003C000000221408142200000038050505DA
:101F10003E00000022262A32220000000010106E2F
:101F2000424200000000007E0000000042426E10AD
:101F300010000000002040204000000000000007CA
:101F400004820508061D04280430060C0600000063
:101F5000004204DD034D054C051A0AFCFF00006930
:021F60000A0075
:00000001FF
